:020000000328D3
:100006008316031386018312860106140B30FB0048
:100016002630FC005D30FD00FD0B0F28FC0B0F2881
:10002600FB0B0F280000000006100B30FB002630EB
:10003600FC005D30FD00FD0B1E28FC0B1E28FB0B93
:100046001E280000000086140B30FB002630FC0042
:100056005D30FD00FD0B2D28FC0B2D28FB0B2D28FC
:100066000000000086100B30FB002630FC005D30DF
:10007600FD00FD0B3C28FC0B3C28FB0B3C2800003C
:06008600000008284528D7
:02400E004A2F37
:00000001FF
