:020000000328D3
:1000060083160313860183128601F101F201803003
:10001600F000803072067002031D13287108323C0E
:10002600031C2E2806140330FC001230FD00FD0BC5
:100036001A28FC0B1A28000006103230FC00DD30AE
:10004600FD00FD0B2428FC0B242800000000F10A0B
:100056000319F20A0A280330FB000830FC00773047
:10006600FD00FD0B3428FC0B3428FB0B3428F10172
:10007600F2018030F000803072067002031D4528C0
:100086007108323C031C602806140430FC00E4307E
:10009600FD00FD0B4C28FC0B4C28000006103130EF
:1000A600FC000B30FD00FD0B5628FC0B562800000B
:1000B6000000F10A0319F20A3C280330FB0008305D
:1000C600FC007730FD00FD0B6628FC0B6628FB0B59
:1000D6006628F101F2018030F0008030720670026D
:1000E600031D77287108323C031C9228061406303B
:1000F600FC00B530FD00FD0B7E28FC0B7E280000C1
:10010600000006102F30FC003A30FD00FD0B892858
:10011600FC0B89280000F10A0319F20A6E28033045
:10012600FB000830FC007730FD00FD0B9828FC0B27
:0A0136009828FB0B982808289F2842
:02400E004A2F37
:00000001FF
