:020000000328D3
:1000060083160313860183128601FF308316880048
:10001600831286150814081C23280230FB000430BE
:10002600FC00BA30FD00FD0B1628FC0B1628FB0B56
:10003600162800000814081C232806148610061526
:100046008814881C37280230FB000430FC00BA30C4
:10005600FD00FD0B2C28FC0B2C28FB0B2C2800008C
:100066008814881C372806110815081D4D280230EB
:10007600FB000430FC00BA30FD00FD0B4028FC0BF1
:100086004028FB0B402800000815081D4D280610C7
:1000960086140615061C5228061D52285828861C4A
:1000A6005728061D572858286C2886111A30FC0038
:1000B600F830FD00FD0B5D28FC0B5D280000861561
:1000C6001A30FC00F830FD00FD0B6728FC0B672892
:0600D60000000D286D285A
:02400E004A2F37
:00000001FF
