:020000000328D3
:100006008316031386018312860106140230FB0051
:100016000430FC00BA30FD00FD0B0F28FC0B0F2846
:10002600FB0B0F28000006100230FB000430FC001A
:10003600BA30FD00FD0B1D28FC0B1D28FB0B1D28EF
:10004600000086140230FB000430FC00BA30FD00CC
:10005600FD0B2B28FC0B2B28FB0B2B2800008610F6
:100066000230FB000430FC00BA30FD00FD0B3928DD
:0E007600FC0B3928FB0B392800000828412814
:02400E004A2F37
:00000001FF
