:020000001729BE
:06000600000000000800EC
:10000C000F3083120313FC004730FD00FD0B0C284E
:0A001C00FC0B0C2800000000080097
:0E002600213083120313FD00FD0B1728080084
:1000340083120313E31B2028861321288617631BCE
:100044002528061326280617E31A2A2886122B28A1
:100054008616631A2F28061230280616201834280C
:10006400061535280611861503208611E3193C2848
:1000740086133D288617631941280613422806175C
:10008400E318462886124728861663184B2806125A
:100094004C280616201850280615512806118615D6
:1000A40003208611201C58280620592813200800F4
:1000B4008312031320106208E3001A20201408009E
:0E00C4008312031322088A002108820008001C
:1000D20062208A110A128000840AA10A0319A20A64
:0800E200F003031D692808006A
:1000EA008728803083120313DE009A28C030DE008E
:1000FA009A289430DE009A28D430DE009A2880307C
:10010A00DE009A28831203135E08013A031976283F
:10011A005E08023A03197B285E08033A03197E280F
:10012A005E08043A0319812884285F03F0005E08F8
:10013A00F0077008DE007008E3001A202010E101C1
:10014A0061086007840000080319B3286108600782
:10015A0084000008E2005A20E10AA52820140800B9
:10016A0083160313861106110612861206138613C6
:10017A0083128611061186130613861206120620AA
:10018A0006200620861606168615032086110620E6
:10019A00861503208611062086150320861106205F
:1001AA00061286150320861106208615032086115D
:1001BA0086128617861503208611062086130616D0
:1001CA00861503208611061286150320861106203D
:1001DA008615032086110616861503208611062029
:1001EA000612861503208611861706178616061626
:0C01FA0086150320861106202014080042
:1002060083120313DF01E0015E0884000008003A50
:1002160003191229DF0A0319E00ADE0A07295F0813
:08022600F0006008F10008007F
:10022E00483083120313A7006930A8002030A900BC
:10023E006930AA002030AB006130AC006D30AD00EB
:10024E002030AE007230AF006130B0006B30B100C4
:10025E006930B2006230B3007530B4006C30B50056
:10026E002030B6006930B7007330B8006C30B9007A
:10027E006130BA006D30BB002030BC007230BD0062
:10028E006130BE006B30BF006930C0006230C1000B
:10029E002E30C2002030C3007330C4006830C50059
:1002AE006530C6007230C7007030C8007530C900A6
:1002BE007230CA002030CB002030CC006930CD0027
:1002CE007330CE002030CF006D30D0007930D100A9
:1002DE002030D2006830D3006F30D4006D30D5009E
:1002EE006530D6002030D7007430D8006F30D9007A
:1002FE007730DA006E30DB002E30DC00DD01493065
:10030E008316A0002730A1006D30A2002030A3007C
:10031E006130A4002030A5006330A6006F30A70026
:10032E006D30A8007030A9007530AA007430AB0093
:10033E006530AC007230AD002030AE006530AF00DD
:10034E006E30B0006730B1006930B2006E30B3006D
:10035E006530B4006530B5007230B6002E30B7008F
:10036E002030B8004E30B9006F30BA007730BB0085
:10037E002030BC004930BD002030BE006130BF00CF
:10038E006D30C0002030C1006130C2007430C30037
:10039E002030C4003430C5003230C6002030C700D3
:1003AE002030C8002030C9002030CA002030CB00D9
:1003BE002030CC002030CD002030CE002030CF00B9
:1003CE002030D0002030D1002030D2002030D30099
:1003DE002030D400D50127308312DE0003217008AF
:1003EE00A5007108A600A030DE000321B5200C3058
:1003FE00E3001A200130DE000130DF002730E0007C
:10040E0075200230DE000130DF00A030E0007520E4
:10041E000630FB001330FC00AD30FD00FD0B152A3D
:10042E00FC0B152AFB0B152A00000000A301A401EA
:10043E0011302502F1000030031C013E2602F200AD
:10044E0080302406F000803072067002031D312ABF
:10045E00710823020318482A1830E3001A200630C8
:10046E00FB001330FC00AD30FD00FD0B3C2AFC0BF5
:10047E003C2AFB0B3C2A00000000A30A0319A40A25
:10048E001F2AA301A40111302502F1000030031C24
:10049E00013E2602F20080302406F0008030720603
:1004AE007002031D5C2A710823020318732A1C3084
:1004BE00E3001A200630FB001330FC00AD30FD00C7
:1004CE00FD0B672AFC0B672AFB0B672A0000000056
:0C04DE00A30A0319A40A4A2A1D2A742A42
:02400E004A2F37
:00000001FF
