:020000000328D3
:1000060083120313A201A301A401A501A601A7015E
:10001600831686018312260886000230FB00043010
:10002600FC00BA30FD00FD0B1628FC0B1628FB0B56
:1000360016280000A60A0319A70AA20A0319A30A8A
:10004600A40A0319A50A00302506031D2C280A3028
:100056002406031D3428A401A5010630A6070318AB
:10006600A70A00302306031D3A2864302206031D22
:0E0076004028A201A301A601A7010D284128E0
:02400E004A2F37
:00000001FF
